:100000000C942A000C9443010C9443010C9443017A
:100010000C9443010C9443010C9443010C94430150
:100020000C9443010C9443010C9443010C94430140
:100030000C9443010C9443010C9443010C94430130
:100040000C9443010C9443010C9443010C94430120
:100050000C94430111241FBECFE5D8E0DEBFCDBF15
:0C0060000E9446000C943400F894FFCF7E
:10006C00504C53205449450000000000594F555244
:10007C002042454C5400000000000000000000002D
:10008C00CF93DF93CDB7DEB7A0970FB6F894DEBF52
:10009C000FBECDBF2CE630E040E088E0F901DE0178
:1000AC001196742F0E943601FE01399684E0DF010F
:1000BC001D928A95E9F728E730E040E08AE0F901E3
:1000CC00DE011D96742F0E943601FE0177968AE0A0
:1000DC00DF011D928A95E9F70E94F5000E94290123
:1000EC0085E80E948F00CE0101960E94130186ECD8
:1000FC000E948F00CE010D960E94130180E090E0CB
:10010C00A0960FB6F894DEBF0FBECDBFDF91CF9196
:02011C00089544
:10011E009BB39F70282F207F922B9BBB9BB39E7F00
:10012E009BBB9BB392609BBB32E03A95F1F700C04C
:10013E009BB39D7F9BBBEFE8F1E03197F1F700C0D9
:10014E0000002BB3F0E18F9FC0011124922F9F70FE
:10015E00892B8BBB8BB382608BBB32E03A95F1F768
:10016E0000C08BB38D7F8BBB8FE99FE00197F1F7BA
:06017E0000C0000008951E
:100184009BB39F70282F207F922B9BBB9BB39160C6
:100194009BBB9BB392609BBB32E03A95F1F700C0E6
:1001A4009BB39D7F9BBBEFE8F1E03197F1F700C073
:1001B40000002BB3F0E18F9FC0011124922F9F7098
:1001C400892B8BBB8BB382608BBB32E03A95F1F702
:1001D40000C08BB38D7F8BBB8FE99FE00197F1F754
:0601E40000C000000895B8
:1001EA008FEF8ABB8FE39CE90197F1F700C000000B
:1001FA0082E00E948F0088E20E948F008CE00E94B9
:10020A008F0086E00E948F0081E00E948F008FE9B4
:0C021A009FE00197F1F700C0000008957C
:100226000F931F93CF93DF938C01C0E0D0E003C000
:100236000E94C2002196F801EC0FFD1F80818111FA
:0C024600F7CFDF91CF911F910F91089529
:1002520081E00E948F008FE99FE00197F1F700C0D3
:0A026200000080E80E948F0008955C
:10026C00992777FD05C005900D920197E1F7089548
:0A027C0001900D920197E1F708953B
:040286000C940000D4
:00000001FF
